{
    "hex": "01000000010000000000000000000000000000000000000000000000000000000000000000ffffffff0e04b5eda3520101062f503253482fffffffff010098dfdc5e42000023210245177fc121518d812eeb3afbc746afa9e3a1a589b617f028a75c6089b846685eac00000000",
    "txid": "3b14b76d22a3f2859d73316002bc1b9bfc7f37e2c3393be9b722b62bbd786983",
    "version": 1,
    "locktime": 0,
    "vin": [
        {
            "coinbase": "04b5eda3520101062f503253482f",
            "sequence": 4294967295
        }
    ],
    "vout": [
        {
            "value": 729752.00000000,
            "n": 0,
            "scriptPubKey": {
                "asm": "0245177fc121518d812eeb3afbc746afa9e3a1a589b617f028a75c6089b846685e OP_CHECKSIG",
                "hex": "210245177fc121518d812eeb3afbc746afa9e3a1a589b617f028a75c6089b846685eac",
                "reqSigs": 1,
                "type": "pubkey",
                "addresses": [
                    "DPsvwvYRgt66ntxno9mMuBfwhg9nAMmGrD"
                ]
            }
        }
    ],
    "blockhash": "ea5380659e02a68c073369e502125c634b2fb0aaf351b9360c673368c4f20c96",
    "confirmations": 2514780,
    "time": 1386474933,
    "blocktime": 1386474933
}